{"abi":[{"type":"constructor","inputs":[{"name":"name_","type":"string","internalType":"string"},{"name":"symbol_","type":"string","internalType":"string"},{"name":"initialOwner","type":"address","internalType":"address"},{"name":"recipient","type":"address","internalType":"address"},{"name":"cap_","type":"uint256","internalType":"uint256"},{"name":"initialSupply","type":"uint256","internalType":"uint256"}],"stateMutability":"nonpayable"},{"type":"function","name":"DOMAIN_SEPARATOR","inputs":[],"outputs":[{"name":"","type":"bytes32","internalType":"bytes32"}],"stateMutability":"view"},{"type":"function","name":"acceptOwnership","inputs":[],"outputs":[],"stateMutability":"nonpayable"},{"type":"function","name":"allowance","inputs":[{"name":"owner","type":"address","internalType":"address"},{"name":"spender","type":"address","internalType":"address"}],"outputs":[{"name":"","type":"uint256","internalType":"uint256"}],"stateMutability":"view"},{"type":"function","name":"approve","inputs":[{"name":"spender","type":"address","internalType":"address"},{"name":"value","type":"uint256","internalType":"uint256"}],"outputs":[{"name":"","type":"bool","internalType":"bool"}],"stateMutability":"nonpayable"},{"type":"function","name":"balanceOf","inputs":[{"name":"account","type":"address","internalType":"address"}],"outputs":[{"name":"","type":"uint256","internalType":"uint256"}],"stateMutability":"view"},{"type":"function","name":"burn","inputs":[{"name":"value","type":"uint256","internalType":"uint256"}],"outputs":[],"stateMutability":"nonpayable"},{"type":"function","name":"burnFrom","inputs":[{"name":"account","type":"address","internalType":"address"},{"name":"value","type":"uint256","internalType":"uint256"}],"outputs":[],"stateMutability":"nonpayable"},{"type":"function","name":"cap","inputs":[],"outputs":[{"name":"","type":"uint256","internalType":"uint256"}],"stateMutability":"view"},{"type":"function","name":"decimals","inputs":[],"outputs":[{"name":"","type":"uint8","internalType":"uint8"}],"stateMutability":"view"},{"type":"function","name":"eip712Domain","inputs":[],"outputs":[{"name":"fields","type":"bytes1","internalType":"bytes1"},{"name":"name","type":"string","internalType":"string"},{"name":"version","type":"string","internalType":"string"},{"name":"chainId","type":"uint256","internalType":"uint256"},{"name":"verifyingContract","type":"address","internalType":"address"},{"name":"salt","type":"bytes32","internalType":"bytes32"},{"name":"extensions","type":"uint256[]","internalType":"uint256[]"}],"stateMutability":"view"},{"type":"function","name":"mint","inputs":[{"name":"to","type":"address","internalType":"address"},{"name":"amount","type":"uint256","internalType":"uint256"}],"outputs":[],"stateMutability":"nonpayable"},{"type":"function","name":"name","inputs":[],"outputs":[{"name":"","type":"string","internalType":"string"}],"stateMutability":"view"},{"type":"function","name":"nonces","inputs":[{"name":"owner","type":"address","internalType":"address"}],"outputs":[{"name":"","type":"uint256","internalType":"uint256"}],"stateMutability":"view"},{"type":"function","name":"owner","inputs":[],"outputs":[{"name":"","type":"address","internalType":"address"}],"stateMutability":"view"},{"type":"function","name":"pendingOwner","inputs":[],"outputs":[{"name":"","type":"address","internalType":"address"}],"stateMutability":"view"},{"type":"function","name":"permit","inputs":[{"name":"owner","type":"address","internalType":"address"},{"name":"spender","type":"address","internalType":"address"},{"name":"value","type":"uint256","internalType":"uint256"},{"name":"deadline","type":"uint256","internalType":"uint256"},{"name":"v","type":"uint8","internalType":"uint8"},{"name":"r","type":"bytes32","internalType":"bytes32"},{"name":"s","type":"bytes32","internalType":"bytes32"}],"outputs":[],"stateMutability":"nonpayable"},{"type":"function","name":"renounceOwnership","inputs":[],"outputs":[],"stateMutability":"nonpayable"},{"type":"function","name":"symbol","inputs":[],"outputs":[{"name":"","type":"string","internalType":"string"}],"stateMutability":"view"},{"type":"function","name":"totalSupply","inputs":[],"outputs":[{"name":"","type":"uint256","internalType":"uint256"}],"stateMutability":"view"},{"type":"function","name":"transfer","inputs":[{"name":"to","type":"address","internalType":"address"},{"name":"value","type":"uint256","internalType":"uint256"}],"outputs":[{"name":"","type":"bool","internalType":"bool"}],"stateMutability":"nonpayable"},{"type":"function","name":"transferFrom","inputs":[{"name":"from","type":"address","internalType":"address"},{"name":"to","type":"address","internalType":"address"},{"name":"value","type":"uint256","internalType":"uint256"}],"outputs":[{"name":"","type":"bool","internalType":"bool"}],"stateMutability":"nonpayable"},{"type":"function","name":"transferOwnership","inputs":[{"name":"newOwner","type":"address","internalType":"address"}],"outputs":[],"stateMutability":"nonpayable"},{"type":"event","name":"Approval","inputs":[{"name":"owner","type":"address","indexed":true,"internalType":"address"},{"name":"spender","type":"address","indexed":true,"internalType":"address"},{"name":"value","type":"uint256","indexed":false,"internalType":"uint256"}],"anonymous":false},{"type":"event","name":"EIP712DomainChanged","inputs":[],"anonymous":false},{"type":"event","name":"OwnershipTransferStarted","inputs":[{"name":"previousOwner","type":"address","indexed":true,"internalType":"address"},{"name":"newOwner","type":"address","indexed":true,"internalType":"address"}],"anonymous":false},{"type":"event","name":"OwnershipTransferred","inputs":[{"name":"previousOwner","type":"address","indexed":true,"internalType":"address"},{"name":"newOwner","type":"address","indexed":true,"internalType":"address"}],"anonymous":false},{"type":"event","name":"Transfer","inputs":[{"name":"from","type":"address","indexed":true,"internalType":"address"},{"name":"to","type":"address","indexed":true,"internalType":"address"},{"name":"value","type":"uint256","indexed":false,"internalType":"uint256"}],"anonymous":false},{"type":"error","name":"ATOSToken_InitialSupplyExceedsCap","inputs":[{"name":"initialSupply","type":"uint256","internalType":"uint256"},{"name":"cap","type":"uint256","internalType":"uint256"}]},{"type":"error","name":"ATOSToken_ZeroAddress","inputs":[]},{"type":"error","name":"ECDSAInvalidSignature","inputs":[]},{"type":"error","name":"ECDSAInvalidSignatureLength","inputs":[{"name":"length","type":"uint256","internalType":"uint256"}]},{"type":"error","name":"ECDSAInvalidSignatureS","inputs":[{"name":"s","type":"bytes32","internalType":"bytes32"}]},{"type":"error","name":"ERC20ExceededCap","inputs":[{"name":"increasedSupply","type":"uint256","internalType":"uint256"},{"name":"cap","type":"uint256","internalType":"uint256"}]},{"type":"error","name":"ERC20InsufficientAllowance","inputs":[{"name":"spender","type":"address","internalType":"address"},{"name":"allowance","type":"uint256","internalType":"uint256"},{"name":"needed","type":"uint256","internalType":"uint256"}]},{"type":"error","name":"ERC20InsufficientBalance","inputs":[{"name":"sender","type":"address","internalType":"address"},{"name":"balance","type":"uint256","internalType":"uint256"},{"name":"needed","type":"uint256","internalType":"uint256"}]},{"type":"error","name":"ERC20InvalidApprover","inputs":[{"name":"approver","type":"address","internalType":"address"}]},{"type":"error","name":"ERC20InvalidCap","inputs":[{"name":"cap","type":"uint256","internalType":"uint256"}]},{"type":"error","name":"ERC20InvalidReceiver","inputs":[{"name":"receiver","type":"address","internalType":"address"}]},{"type":"error","name":"ERC20InvalidSender","inputs":[{"name":"sender","type":"address","internalType":"address"}]},{"type":"error","name":"ERC20InvalidSpender","inputs":[{"name":"spender","type":"address","internalType":"address"}]},{"type":"error","name":"ERC2612ExpiredSignature","inputs":[{"name":"deadline","type":"uint256","internalType":"uint256"}]},{"type":"error","name":"ERC2612InvalidSigner","inputs":[{"name":"signer","type":"address","internalType":"address"},{"name":"owner","type":"address","internalType":"address"}]},{"type":"error","name":"InvalidAccountNonce","inputs":[{"name":"account","type":"address","internalType":"address"},{"name":"currentNonce","type":"uint256","internalType":"uint256"}]},{"type":"error","name":"InvalidShortString","inputs":[]},{"type":"error","name":"OwnableInvalidOwner","inputs":[{"name":"owner","type":"address","internalType":"address"}]},{"type":"error","name":"OwnableUnauthorizedAccount","inputs":[{"name":"account","type":"address","internalType":"address"}]},{"type":"error","name":"StringTooLong","inputs":[{"name":"str","type":"string","internalType":"string"}]}],"bytecode":{"object":"0x61018060405234801562000011575f80fd5b5060405162001add38038062001add8339810160408190526200003491620005b6565b838680604051806040016040528060018152602001603160f81b815250858a8a8160039081620000659190620006d3565b506004620000748282620006d3565b505050805f036200009f5760405163392e1e2760e01b81525f60048201526024015b60405180910390fd5b608052620000af82600562000204565b61014052620000c081600662000204565b61016052815160208084019190912061010052815190820120610120524660c0526200014f6101005161012051604080517f8b73c3c69bb8fe3d512ecc4cf759cc79239f7b179b0ffacaa9a75d522b39400f60208201529081019290925260608201524660808201523060a08201525f9060c00160405160208183030381529060405280519060200120905090565b60a05250503060e052506001600160a01b0381166200018457604051631e4fbdf760e01b81525f600482015260240162000096565b6200018f816200023c565b506001600160a01b038316620001b857604051630117417360e31b815260040160405180910390fd5b81811115620001e557604051638ff71a0160e01b8152600481018290526024810183905260440162000096565b8015620001f857620001f883826200025a565b50505050505062000817565b5f60208351101562000223576200021b8362000296565b905062000236565b81620002308482620006d3565b5060ff90505b92915050565b600980546001600160a01b03191690556200025781620002d8565b50565b6001600160a01b038216620002855760405163ec442f0560e01b81525f600482015260240162000096565b620002925f838362000329565b5050565b5f80829050601f81511115620002c3578260405163305a27a960e01b81526004016200009691906200079f565b8051620002d082620007d3565b179392505050565b600880546001600160a01b038381166001600160a01b0319831681179093556040519116919082907f8be0079c531659141344cd1fd0a4f28419497f9722a3daafe3b4186f6b6457e0905f90a35050565b620003368383836200033b565b505050565b62000348838383620003a5565b6001600160a01b03831662000336575f6200036260805190565b90505f6200036f60025490565b9050818111156200039e5760405163279e7e1560e21b8152600481018290526024810183905260440162000096565b5050505050565b6001600160a01b038316620003d3578060025f828254620003c79190620007f7565b90915550620004459050565b6001600160a01b0383165f9081526020819052604090205481811015620004275760405163391434e360e21b81526001600160a01b0385166004820152602481018290526044810183905260640162000096565b6001600160a01b0384165f9081526020819052604090209082900390555b6001600160a01b038216620004635760028054829003905562000481565b6001600160a01b0382165f9081526020819052604090208054820190555b816001600160a01b0316836001600160a01b03167fddf252ad1be2c89b69c2b068fc378daa952ba7f163c4a11628f55a4df523b3ef83604051620004c791815260200190565b60405180910390a3505050565b634e487b7160e01b5f52604160045260245ffd5b5f5b8381101562000504578181015183820152602001620004ea565b50505f910152565b5f82601f8301126200051c575f80fd5b81516001600160401b0380821115620005395762000539620004d4565b604051601f8301601f19908116603f01168101908282118183101715620005645762000564620004d4565b816040528381528660208588010111156200057d575f80fd5b62000590846020830160208901620004e8565b9695505050505050565b80516001600160a01b0381168114620005b1575f80fd5b919050565b5f805f805f8060c08789031215620005cc575f80fd5b86516001600160401b0380821115620005e3575f80fd5b620005f18a838b016200050c565b9750602089015191508082111562000607575f80fd5b506200061689828a016200050c565b95505062000627604088016200059a565b935062000637606088016200059a565b92506080870151915060a087015190509295509295509295565b600181811c908216806200066657607f821691505b6020821081036200068557634e487b7160e01b5f52602260045260245ffd5b50919050565b601f8211156200033657805f5260205f20601f840160051c81016020851015620006b25750805b601f840160051c820191505b818110156200039e575f8155600101620006be565b81516001600160401b03811115620006ef57620006ef620004d4565b620007078162000700845462000651565b846200068b565b602080601f8311600181146200073d575f8415620007255750858301515b5f19600386901b1c1916600185901b17855562000797565b5f85815260208120601f198616915b828110156200076d578886015182559484019460019091019084016200074c565b50858210156200078b57878501515f19600388901b60f8161c191681555b505060018460011b0185555b505050505050565b602081525f8251806020840152620007bf816040850160208701620004e8565b601f01601f19169190910160400192915050565b8051602080830151919081101562000685575f1960209190910360031b1b16919050565b808201808211156200023657634e487b7160e01b5f52601160045260245ffd5b60805160a05160c05160e051610100516101205161014051610160516112636200087a5f395f6109b601525f61098901525f61088401525f61085c01525f6107b701525f6107e101525f61080b01525f81816101b80152610da901526112635ff3fe608060405234801561000f575f80fd5b506004361061013d575f3560e01c806379ba5097116100b457806395d89b411161007957806395d89b41146102aa578063a9059cbb146102b2578063d505accf146102c5578063dd62ed3e146102d8578063e30c397814610310578063f2fde38b14610321575f80fd5b806379ba50971461023c57806379cc6790146102445780637ecebe001461025757806384b0196e1461026a5780638da5cb5b14610285575f80fd5b8063355274ea11610105578063355274ea146101b65780633644e515146101dc57806340c10f19146101e457806342966c68146101f957806370a082311461020c578063715018a614610234575f80fd5b806306fdde0314610141578063095ea7b31461015f57806318160ddd1461018257806323b872dd14610194578063313ce567146101a7575b5f80fd5b610149610334565b6040516101569190610fc8565b60405180910390f35b61017261016d366004610ffc565b6103c4565b6040519015158152602001610156565b6002545b604051908152602001610156565b6101726101a2366004611024565b6103dd565b60405160128152602001610156565b7f0000000000000000000000000000000000000000000000000000000000000000610186565b610186610400565b6101f76101f2366004610ffc565b61040e565b005b6101f761020736600461105d565b610424565b61018661021a366004611074565b6001600160a01b03165f9081526020819052604090205490565b6101f7610431565b6101f7610444565b6101f7610252366004610ffc565b61048a565b610186610265366004611074565b61049f565b6102726104bc565b604051610156979695949392919061108d565b6008546001600160a01b03165b6040516001600160a01b039091168152602001610156565b6101496104fe565b6101726102c0366004610ffc565b61050d565b6101f76102d3366004611124565b61051a565b6101866102e6366004611191565b6001600160a01b039182165f90815260016020908152604080832093909416825291909152205490565b6009546001600160a01b0316610292565b6101f761032f366004611074565b610650565b606060038054610343906111c2565b80601f016020809104026020016040519081016040528092919081815260200182805461036f906111c2565b80156103ba5780601f10610391576101008083540402835291602001916103ba565b820191905f5260205f20905b81548152906001019060200180831161039d57829003601f168201915b5050505050905090565b5f336103d18185856106c1565b60019150505b92915050565b5f336103ea8582856106d3565b6103f585858561074e565b506001949350505050565b5f6104096107ab565b905090565b6104166108d4565b6104208282610901565b5050565b61042e3382610935565b50565b6104396108d4565b6104425f610969565b565b60095433906001600160a01b031681146104815760405163118cdaa760e01b81526001600160a01b03821660048201526024015b60405180910390fd5b61042e81610969565b6104958233836106d3565b6104208282610935565b6001600160a01b0381165f908152600760205260408120546103d7565b5f6060805f805f60606104cd610982565b6104d56109af565b604080515f80825260208201909252600f60f81b9b939a50919850469750309650945092509050565b606060048054610343906111c2565b5f336103d181858561074e565b8342111561053e5760405163313c898160e11b815260048101859052602401610478565b5f7f6e71edae12b1b97f4d1f60370fef10105fa2faae0126114a169c64845d6126c98888886105898c6001600160a01b03165f90815260076020526040902080546001810190915590565b6040805160208101969096526001600160a01b0394851690860152929091166060840152608083015260a082015260c0810186905260e0016040516020818303038152906040528051906020012090505f6105e3826109dc565b90505f6105f282878787610a08565b9050896001600160a01b0316816001600160a01b031614610639576040516325c0072360e11b81526001600160a01b0380831660048301528b166024820152604401610478565b6106448a8a8a6106c1565b50505050505050505050565b6106586108d4565b600980546001600160a01b0383166001600160a01b031990911681179091556106896008546001600160a01b031690565b6001600160a01b03167f38d16b8cac22d99fc7c124b9cd0de2d3fa1faef420bfe791d8c362d765e2270060405160405180910390a350565b6106ce8383836001610a34565b505050565b6001600160a01b038381165f908152600160209081526040808320938616835292905220545f198114610748578181101561073a57604051637dc7a0d960e11b81526001600160a01b03841660048201526024810182905260448101839052606401610478565b61074884848484035f610a34565b50505050565b6001600160a01b03831661077757604051634b637e8f60e11b81525f6004820152602401610478565b6001600160a01b0382166107a05760405163ec442f0560e01b81525f6004820152602401610478565b6106ce838383610b06565b5f306001600160a01b037f00000000000000000000000000000000000000000000000000000000000000001614801561080357507f000000000000000000000000000000000000000000000000000000000000000046145b1561082d57507f000000000000000000000000000000000000000000000000000000000000000090565b610409604080517f8b73c3c69bb8fe3d512ecc4cf759cc79239f7b179b0ffacaa9a75d522b39400f60208201527f0000000000000000000000000000000000000000000000000000000000000000918101919091527f000000000000000000000000000000000000000000000000000000000000000060608201524660808201523060a08201525f9060c00160405160208183030381529060405280519060200120905090565b6008546001600160a01b031633146104425760405163118cdaa760e01b8152336004820152602401610478565b6001600160a01b03821661092a5760405163ec442f0560e01b81525f6004820152602401610478565b6104205f8383610b06565b6001600160a01b03821661095e57604051634b637e8f60e11b81525f6004820152602401610478565b610420825f83610b06565b600980546001600160a01b031916905561042e81610b11565b60606104097f00000000000000000000000000000000000000000000000000000000000000006005610b62565b60606104097f00000000000000000000000000000000000000000000000000000000000000006006610b62565b5f6103d76109e86107ab565b8360405161190160f01b8152600281019290925260228201526042902090565b5f805f80610a1888888888610c0b565b925092509250610a288282610cd3565b50909695505050505050565b6001600160a01b038416610a5d5760405163e602df0560e01b81525f6004820152602401610478565b6001600160a01b038316610a8657604051634a1406b160e11b81525f6004820152602401610478565b6001600160a01b038085165f908152600160209081526040808320938716835292905220829055801561074857826001600160a01b0316846001600160a01b03167f8c5be1e5ebec7d5bd14f71427d1e84f3dd0314c0f7b2291e5b200ac8c7c3b92584604051610af891815260200190565b60405180910390a350505050565b6106ce838383610d8b565b600880546001600160a01b038381166001600160a01b0319831681179093556040519116919082907f8be0079c531659141344cd1fd0a4f28419497f9722a3daafe3b4186f6b6457e0905f90a35050565b606060ff8314610b7c57610b7583610dfb565b90506103d7565b818054610b88906111c2565b80601f0160208091040260200160405190810160405280929190818152602001828054610bb4906111c2565b8015610bff5780601f10610bd657610100808354040283529160200191610bff565b820191905f5260205f20905b815481529060010190602001808311610be257829003601f168201915b505050505090506103d7565b5f80807f7fffffffffffffffffffffffffffffff5d576e7357a4501ddfe92f46681b20a0841115610c4457505f91506003905082610cc9565b604080515f808252602082018084528a905260ff891692820192909252606081018790526080810186905260019060a0016020604051602081039080840390855afa158015610c95573d5f803e3d5ffd5b5050604051601f1901519150506001600160a01b038116610cc057505f925060019150829050610cc9565b92505f91508190505b9450945094915050565b5f826003811115610ce657610ce66111fa565b03610cef575050565b6001826003811115610d0357610d036111fa565b03610d215760405163f645eedf60e01b815260040160405180910390fd5b6002826003811115610d3557610d356111fa565b03610d565760405163fce698f760e01b815260048101829052602401610478565b6003826003811115610d6a57610d6a6111fa565b03610420576040516335e2f38360e21b815260048101829052602401610478565b610d96838383610e38565b6001600160a01b0383166106ce576002547f00000000000000000000000000000000000000000000000000000000000000009081811115610df45760405163279e7e1560e21b81526004810182905260248101839052604401610478565b5050505050565b60605f610e0783610f5e565b6040805160208082528183019092529192505f91906020820181803683375050509182525060208101929092525090565b6001600160a01b038316610e62578060025f828254610e57919061120e565b90915550610ed29050565b6001600160a01b0383165f9081526020819052604090205481811015610eb45760405163391434e360e21b81526001600160a01b03851660048201526024810182905260448101839052606401610478565b6001600160a01b0384165f9081526020819052604090209082900390555b6001600160a01b038216610eee57600280548290039055610f0c565b6001600160a01b0382165f9081526020819052604090208054820190555b816001600160a01b0316836001600160a01b03167fddf252ad1be2c89b69c2b068fc378daa952ba7f163c4a11628f55a4df523b3ef83604051610f5191815260200190565b60405180910390a3505050565b5f60ff8216601f8111156103d757604051632cd44ac360e21b815260040160405180910390fd5b5f81518084525f5b81811015610fa957602081850181015186830182015201610f8d565b505f602082860101526020601f19601f83011685010191505092915050565b602081525f610fda6020830184610f85565b9392505050565b80356001600160a01b0381168114610ff7575f80fd5b919050565b5f806040838503121561100d575f80fd5b61101683610fe1565b946020939093013593505050565b5f805f60608486031215611036575f80fd5b61103f84610fe1565b925061104d60208501610fe1565b9150604084013590509250925092565b5f6020828403121561106d575f80fd5b5035919050565b5f60208284031215611084575f80fd5b610fda82610fe1565b60ff60f81b881681525f602060e060208401526110ad60e084018a610f85565b83810360408501526110bf818a610f85565b606085018990526001600160a01b038816608086015260a0850187905284810360c0860152855180825260208088019350909101905f5b81811015611112578351835292840192918401916001016110f6565b50909c9b505050505050505050505050565b5f805f805f805f60e0888a03121561113a575f80fd5b61114388610fe1565b965061115160208901610fe1565b95506040880135945060608801359350608088013560ff81168114611174575f80fd5b9699959850939692959460a0840135945060c09093013592915050565b5f80604083850312156111a2575f80fd5b6111ab83610fe1565b91506111b960208401610fe1565b90509250929050565b600181811c908216806111d657607f821691505b6020821081036111f457634e487b7160e01b5f52602260045260245ffd5b50919050565b634e487b7160e01b5f52602160045260245ffd5b808201808211156103d757634e487b7160e01b5f52601160045260245ffdfea26469706673582212209581a6a9305d4bbcfc5cbca95909f1a4d66cbd30ed56c4ad2cc56bb2b8b736c064736f6c63430008180033","linkReferences":{}},"methodIdentifiers":{"DOMAIN_SEPARATOR()":"3644e515","acceptOwnership()":"79ba5097","allowance(address,address)":"dd62ed3e","approve(address,uint256)":"095ea7b3","balanceOf(address)":"70a08231","burn(uint256)":"42966c68","burnFrom(address,uint256)":"79cc6790","cap()":"355274ea","decimals()":"313ce567","eip712Domain()":"84b0196e","mint(address,uint256)":"40c10f19","name()":"06fdde03","nonces(address)":"7ecebe00","owner()":"8da5cb5b","pendingOwner()":"e30c3978","permit(address,address,uint256,uint256,uint8,bytes32,bytes32)":"d505accf","renounceOwnership()":"715018a6","symbol()":"95d89b41","totalSupply()":"18160ddd","transfer(address,uint256)":"a9059cbb","transferFrom(address,address,uint256)":"23b872dd","transferOwnership(address)":"f2fde38b"},"id":21}