{"abi":[{"type":"constructor","inputs":[{"name":"name_","type":"string","internalType":"string"},{"name":"symbol_","type":"string","internalType":"string"},{"name":"initialOwner","type":"address","internalType":"address"},{"name":"recipient","type":"address","internalType":"address"},{"name":"cap_","type":"uint256","internalType":"uint256"},{"name":"initialSupply","type":"uint256","internalType":"uint256"}],"stateMutability":"nonpayable"},{"type":"function","name":"DOMAIN_SEPARATOR","inputs":[],"outputs":[{"name":"","type":"bytes32","internalType":"bytes32"}],"stateMutability":"view"},{"type":"function","name":"acceptOwnership","inputs":[],"outputs":[],"stateMutability":"nonpayable"},{"type":"function","name":"allowance","inputs":[{"name":"owner","type":"address","internalType":"address"},{"name":"spender","type":"address","internalType":"address"}],"outputs":[{"name":"","type":"uint256","internalType":"uint256"}],"stateMutability":"view"},{"type":"function","name":"approve","inputs":[{"name":"spender","type":"address","internalType":"address"},{"name":"value","type":"uint256","internalType":"uint256"}],"outputs":[{"name":"","type":"bool","internalType":"bool"}],"stateMutability":"nonpayable"},{"type":"function","name":"balanceOf","inputs":[{"name":"account","type":"address","internalType":"address"}],"outputs":[{"name":"","type":"uint256","internalType":"uint256"}],"stateMutability":"view"},{"type":"function","name":"burn","inputs":[{"name":"value","type":"uint256","internalType":"uint256"}],"outputs":[],"stateMutability":"nonpayable"},{"type":"function","name":"burnFrom","inputs":[{"name":"account","type":"address","internalType":"address"},{"name":"value","type":"uint256","internalType":"uint256"}],"outputs":[],"stateMutability":"nonpayable"},{"type":"function","name":"cap","inputs":[],"outputs":[{"name":"","type":"uint256","internalType":"uint256"}],"stateMutability":"view"},{"type":"function","name":"decimals","inputs":[],"outputs":[{"name":"","type":"uint8","internalType":"uint8"}],"stateMutability":"view"},{"type":"function","name":"eip712Domain","inputs":[],"outputs":[{"name":"fields","type":"bytes1","internalType":"bytes1"},{"name":"name","type":"string","internalType":"string"},{"name":"version","type":"string","internalType":"string"},{"name":"chainId","type":"uint256","internalType":"uint256"},{"name":"verifyingContract","type":"address","internalType":"address"},{"name":"salt","type":"bytes32","internalType":"bytes32"},{"name":"extensions","type":"uint256[]","internalType":"uint256[]"}],"stateMutability":"view"},{"type":"function","name":"mint","inputs":[{"name":"to","type":"address","internalType":"address"},{"name":"amount","type":"uint256","internalType":"uint256"}],"outputs":[],"stateMutability":"nonpayable"},{"type":"function","name":"name","inputs":[],"outputs":[{"name":"","type":"string","internalType":"string"}],"stateMutability":"view"},{"type":"function","name":"nonces","inputs":[{"name":"owner","type":"address","internalType":"address"}],"outputs":[{"name":"","type":"uint256","internalType":"uint256"}],"stateMutability":"view"},{"type":"function","name":"owner","inputs":[],"outputs":[{"name":"","type":"address","internalType":"address"}],"stateMutability":"view"},{"type":"function","name":"pendingOwner","inputs":[],"outputs":[{"name":"","type":"address","internalType":"address"}],"stateMutability":"view"},{"type":"function","name":"permit","inputs":[{"name":"owner","type":"address","internalType":"address"},{"name":"spender","type":"address","internalType":"address"},{"name":"value","type":"uint256","internalType":"uint256"},{"name":"deadline","type":"uint256","internalType":"uint256"},{"name":"v","type":"uint8","internalType":"uint8"},{"name":"r","type":"bytes32","internalType":"bytes32"},{"name":"s","type":"bytes32","internalType":"bytes32"}],"outputs":[],"stateMutability":"nonpayable"},{"type":"function","name":"renounceOwnership","inputs":[],"outputs":[],"stateMutability":"nonpayable"},{"type":"function","name":"symbol","inputs":[],"outputs":[{"name":"","type":"string","internalType":"string"}],"stateMutability":"view"},{"type":"function","name":"totalSupply","inputs":[],"outputs":[{"name":"","type":"uint256","internalType":"uint256"}],"stateMutability":"view"},{"type":"function","name":"transfer","inputs":[{"name":"to","type":"address","internalType":"address"},{"name":"value","type":"uint256","internalType":"uint256"}],"outputs":[{"name":"","type":"bool","internalType":"bool"}],"stateMutability":"nonpayable"},{"type":"function","name":"transferFrom","inputs":[{"name":"from","type":"address","internalType":"address"},{"name":"to","type":"address","internalType":"address"},{"name":"value","type":"uint256","internalType":"uint256"}],"outputs":[{"name":"","type":"bool","internalType":"bool"}],"stateMutability":"nonpayable"},{"type":"function","name":"transferOwnership","inputs":[{"name":"newOwner","type":"address","internalType":"address"}],"outputs":[],"stateMutability":"nonpayable"},{"type":"event","name":"Approval","inputs":[{"name":"owner","type":"address","indexed":true,"internalType":"address"},{"name":"spender","type":"address","indexed":true,"internalType":"address"},{"name":"value","type":"uint256","indexed":false,"internalType":"uint256"}],"anonymous":false},{"type":"event","name":"EIP712DomainChanged","inputs":[],"anonymous":false},{"type":"event","name":"OwnershipTransferStarted","inputs":[{"name":"previousOwner","type":"address","indexed":true,"internalType":"address"},{"name":"newOwner","type":"address","indexed":true,"internalType":"address"}],"anonymous":false},{"type":"event","name":"OwnershipTransferred","inputs":[{"name":"previousOwner","type":"address","indexed":true,"internalType":"address"},{"name":"newOwner","type":"address","indexed":true,"internalType":"address"}],"anonymous":false},{"type":"event","name":"Transfer","inputs":[{"name":"from","type":"address","indexed":true,"internalType":"address"},{"name":"to","type":"address","indexed":true,"internalType":"address"},{"name":"value","type":"uint256","indexed":false,"internalType":"uint256"}],"anonymous":false},{"type":"error","name":"ATOSToken_InitialSupplyExceedsCap","inputs":[{"name":"initialSupply","type":"uint256","internalType":"uint256"},{"name":"cap","type":"uint256","internalType":"uint256"}]},{"type":"error","name":"ATOSToken_ZeroAddress","inputs":[]},{"type":"error","name":"ECDSAInvalidSignature","inputs":[]},{"type":"error","name":"ECDSAInvalidSignatureLength","inputs":[{"name":"length","type":"uint256","internalType":"uint256"}]},{"type":"error","name":"ECDSAInvalidSignatureS","inputs":[{"name":"s","type":"bytes32","internalType":"bytes32"}]},{"type":"error","name":"ERC20ExceededCap","inputs":[{"name":"increasedSupply","type":"uint256","internalType":"uint256"},{"name":"cap","type":"uint256","internalType":"uint256"}]},{"type":"error","name":"ERC20InsufficientAllowance","inputs":[{"name":"spender","type":"address","internalType":"address"},{"name":"allowance","type":"uint256","internalType":"uint256"},{"name":"needed","type":"uint256","internalType":"uint256"}]},{"type":"error","name":"ERC20InsufficientBalance","inputs":[{"name":"sender","type":"address","internalType":"address"},{"name":"balance","type":"uint256","internalType":"uint256"},{"name":"needed","type":"uint256","internalType":"uint256"}]},{"type":"error","name":"ERC20InvalidApprover","inputs":[{"name":"approver","type":"address","internalType":"address"}]},{"type":"error","name":"ERC20InvalidCap","inputs":[{"name":"cap","type":"uint256","internalType":"uint256"}]},{"type":"error","name":"ERC20InvalidReceiver","inputs":[{"name":"receiver","type":"address","internalType":"address"}]},{"type":"error","name":"ERC20InvalidSender","inputs":[{"name":"sender","type":"address","internalType":"address"}]},{"type":"error","name":"ERC20InvalidSpender","inputs":[{"name":"spender","type":"address","internalType":"address"}]},{"type":"error","name":"ERC2612ExpiredSignature","inputs":[{"name":"deadline","type":"uint256","internalType":"uint256"}]},{"type":"error","name":"ERC2612InvalidSigner","inputs":[{"name":"signer","type":"address","internalType":"address"},{"name":"owner","type":"address","internalType":"address"}]},{"type":"error","name":"InvalidAccountNonce","inputs":[{"name":"account","type":"address","internalType":"address"},{"name":"currentNonce","type":"uint256","internalType":"uint256"}]},{"type":"error","name":"InvalidShortString","inputs":[]},{"type":"error","name":"OwnableInvalidOwner","inputs":[{"name":"owner","type":"address","internalType":"address"}]},{"type":"error","name":"OwnableUnauthorizedAccount","inputs":[{"name":"account","type":"address","internalType":"address"}]},{"type":"error","name":"StringTooLong","inputs":[{"name":"str","type":"string","internalType":"string"}]}],"bytecode":{"object":"0x61018060409080825234620005bc5762001b918038038091620000238285620005c0565b833981019160c082840312620005bc5781516001600160401b039390848111620005bc57816200005591850162000607565b916020918285015190868211620005bc576200007391860162000607565b6200008082860162000662565b956200008f6060870162000662565b9360a0608088015197015184519785890189811085821117620004c45786526001998a8a52838a019a603160f81b8c528951868111620004c45760039081548381811c91168015620005b1575b888210146200059d57601f811162000552575b508087601f8211600114620004e4575f91620004d8575b505f1982841b1c191690831b1781555b875190878211620004c45760049889548481811c91168015620004b9575b89821014620004a657601f81116200045b575b508790601f8411600114620003f4579383949184925f95620003e8575b50501b925f19911b1c19161786555b8115620003d25781608052620001898962000677565b976101409889526200019b8b62000812565b996101609a8b528581519101209b8c9b6101009d8e52519020956101209b878d524660c052895197878901917f8b73c3c69bb8fe3d512ecc4cf759cc79239f7b179b0ffacaa9a75d522b39400f83528b8a015260608901524660808901523060a089015260a0885260c088019188831090831117620003bf57818a528751902060a0523060e0526001600160a01b03928316968715620003a9575050600980546001600160a01b031990811690915560088054918216881790558851969083167f8be0079c531659141344cd1fd0a4f28419497f9722a3daafe3b4186f6b6457e05f80a3169384156200039b57508082116200037e575080620002f3575b50505050519261123094856200096186396080518581816107d7015261087e015260a05185610ce2015260c05185610dae015260e05185610cac01525184610d3101525183610d57015251826104a7015251816104d10152f35b6002548181018091116200036b576002555f8381528083528581208054830190558551918252917fddf252ad1be2c89b69c2b068fc378daa952ba7f163c4a11628f55a4df523b3ef91a360805160025481811162000352578062000299565b604493519263279e7e1560e21b84528301526024820152fd5b601185634e487b7160e01b5f525260245ffd5b8551638ff71a0160e01b8152808601929092526024820152604490fd5b630117417360e31b81528590fd5b631e4fbdf760e01b82525f60c490910152602490fd5b604189634e487b7160e01b5f525260245ffd5b865163392e1e2760e01b81525f81880152602490fd5b015193505f8062000164565b9190601f198416928b5f52848a5f20945f5b8c8983831062000443575050501062000429575b50505050811b01865562000173565b01519060f8845f19921b161c191690555f8080806200041a565b86860151895590970196948501948893500162000406565b8a5f52885f20601f850160051c8101918a86106200049b575b601f0160051c019085905b8281106200048f57505062000147565b5f81550185906200047f565b909150819062000474565b60228b634e487b7160e01b5f525260245ffd5b90607f169062000134565b634e487b7160e01b5f52604160045260245ffd5b90508c01515f62000106565b8492508d90601f19831691855f528a5f20925f5b8c82821062000531575050841162000519575b505050811b01815562000116565b01515f1983861b60f8161c191690555f808e6200050b565b929484849395979892960151815501940192018f90918795949392620004f8565b825f52875f20601f830160051c81019189841062000592575b601f0160051c019084905b82811062000586575050620000ef565b5f815501849062000576565b90915081906200056b565b634e487b7160e01b5f52602260045260245ffd5b90607f1690620000dc565b5f80fd5b601f909101601f19168101906001600160401b03821190821017620004c457604052565b5f5b838110620005f65750505f910152565b8181015183820152602001620005e6565b81601f82011215620005bc5780516001600160401b038111620004c457604051926200063e601f8301601f191660200185620005c0565b81845260208284010111620005bc576200065f9160208085019101620005e4565b90565b51906001600160a01b0382168203620005bc57565b80516020919082811015620006f6575090601f825111620006b45780825192015190808310620006a657501790565b825f19910360031b1b161790565b604490620006e89260405193849263305a27a960e01b845280600485015282519283918260248701528686019101620005e4565b601f01601f19168101030190fd5b6001600160401b038111620004c4576005928354926001938481811c9116801562000807575b838210146200059d57601f8111620007d3575b5081601f84116001146200076d57509282939183925f9462000761575b50501b915f199060031b1c191617905560ff90565b015192505f806200074c565b919083601f198116875f52845f20945f905b88838310620007b857505050106200079f575b505050811b01905560ff90565b01515f1960f88460031b161c191690555f808062000792565b8587015188559096019594850194879350908101906200077f565b855f5284601f845f209201871c820191601f8601881c015b828110620007fb5750506200072f565b5f8155018590620007eb565b90607f16906200071c565b8051602090818110156200083f5750601f825111620006b45780825192015190808310620006a657501790565b906001600160401b038211620004c457600654926001938481811c9116801562000955575b838210146200059d57601f81116200091e575b5081601f8411600114620008b657509282939183925f94620008aa575b50501b915f199060031b1c19161760065560ff90565b015192505f8062000894565b919083601f19811660065f52845f20945f905b88838310620009035750505010620008ea575b505050811b0160065560ff90565b01515f1960f88460031b161c191690555f8080620008dc565b858701518855909601959485019487935090810190620008c9565b60065f5284601f845f20920160051c820191601f860160051c015b8281106200094957505062000877565b5f815501859062000939565b90607f16906200086456fe60806040818152600480361015610014575f80fd5b5f3560e01c92836306fdde031461093f57508263095ea7b31461091657826318160ddd146108f857826323b872dd146108bc578263313ce567146108a1578263355274ea146108675782633644e5151461084457826340c10f191461075657826342966c681461073a57826370a0823114610704578263715018a61461069f57826379ba50971461061457826379cc6790146105e55782637ecebe00146105ae57826384b0196e146104925782638da5cb5b1461046a57826395d89b4114610380578263a9059cbb14610350578263d505accf146101f157508163dd62ed3e146101a9578163e30c397814610182575063f2fde38b14610112575f80fd5b3461017e57602036600319011261017e5761012b610a4c565b610133610dd4565b600980546001600160a01b0319166001600160a01b039283169081179091556008549091167f38d16b8cac22d99fc7c124b9cd0de2d3fa1faef420bfe791d8c362d765e227005f80a3005b5f80fd5b3461017e575f36600319011261017e5760095490516001600160a01b039091168152602090f35b3461017e578060031936011261017e576020906101c4610a4c565b6101cc610a62565b9060018060a01b038091165f5260018452825f2091165f528252805f20549051908152f35b3461017e5760e036600319011261017e5761020a610a4c565b610212610a62565b906044359260643560843560ff8116810361017e578142116103395760018060a01b039081851692835f526007602052885f209081549160018301905589519060208201927f6e71edae12b1b97f4d1f60370fef10105fa2faae0126114a169c64845d6126c98452868c840152858a1660608401528a608084015260a083015260c082015260c0815260e0810181811067ffffffffffffffff821117610326578a525190206102f6916102ed916102c7610ca9565b908b519161190160f01b83526002830152602282015260c43591604260a43592206110ea565b90929192611177565b1681810361030b57610309868686610e9f565b005b86516325c0072360e11b815292830152602482015260449150fd5b604187634e487b7160e01b5f525260245ffd5b865163313c898160e11b8152808401839052602490fd5b503461017e578060031936011261017e5760209061037961036f610a4c565b6024359033610bcf565b5160018152f35b3461017e575f36600319011261017e57815191825f83546103a081610a78565b90818452602095600191876001821691825f146104435750506001146103e7575b5050506103e392916103d4910385610ae0565b51928284938452830190610a0e565b0390f35b5f90815286935091907f8a35acfbc15ff81a39ae7d344fd709f28e8600b4aa8c65c6b64bfe7fe36bd19b5b82841061042b57505050820101816103d46103e36103c1565b8054848a018601528895508794909301928101610412565b60ff19168782015293151560051b860190930193508492506103d491506103e390506103c1565b503461017e575f36600319011261017e5760085490516001600160a01b039091168152602090f35b3461017e575f36600319011261017e576104cb7f0000000000000000000000000000000000000000000000000000000000000000610f2c565b916104f57f000000000000000000000000000000000000000000000000000000000000000061102d565b815191602091602084019484861067ffffffffffffffff87111761059b5750610550826020928761054399989795525f85528151988998600f60f81b8a5260e0868b015260e08a0190610a0e565b9188830390890152610a0e565b914660608701523060808701525f60a087015285830360c087015251918281520192915f5b82811061058457505050500390f35b835185528695509381019392810192600101610575565b604190634e487b7160e01b5f525260245ffd5b503461017e57602036600319011261017e576020906001600160a01b036105d3610a4c565b165f5260078252805f20549051908152f35b503461017e5736600319011261017e57610309610600610a4c565b6024359061060f823383610b02565b610e00565b903461017e575f36600319011261017e57600954916001600160a01b039133838516036106885750506bffffffffffffffffffffffff60a01b8092166009556008549133908316176008553391167f8be0079c531659141344cd1fd0a4f28419497f9722a3daafe3b4186f6b6457e05f80a3005b60249250519063118cdaa760e01b82523390820152fd5b3461017e575f36600319011261017e576106b7610dd4565b600980546001600160a01b03199081169091556008805491821690555f906001600160a01b03167f8be0079c531659141344cd1fd0a4f28419497f9722a3daafe3b4186f6b6457e08280a3005b503461017e57602036600319011261017e576020906001600160a01b03610729610a4c565b165f525f8252805f20549051908152f35b3461017e57602036600319011261017e57610309903533610e00565b3461017e578160031936011261017e5761076e610a4c565b6024359061077a610dd4565b6001600160a01b031690811561082e5760025481810180911161081b5760205f927fddf252ad1be2c89b69c2b068fc378daa952ba7f163c4a11628f55a4df523b3ef926002558484528382528684208181540190558651908152a37f000000000000000000000000000000000000000000000000000000000000000060025481811161080257005b604493519263279e7e1560e21b84528301526024820152fd5b601184634e487b7160e01b5f525260245ffd5b835163ec442f0560e01b81525f81850152602490fd5b503461017e575f36600319011261017e57602090610860610ca9565b9051908152f35b503461017e575f36600319011261017e57602090517f00000000000000000000000000000000000000000000000000000000000000008152f35b503461017e575f36600319011261017e576020905160128152f35b503461017e57606036600319011261017e576020906103796108dc610a4c565b6108e4610a62565b604435916108f3833383610b02565b610bcf565b503461017e575f36600319011261017e576020906002549051908152f35b503461017e578060031936011261017e57602090610379610935610a4c565b6024359033610e9f565b823461017e575f36600319011261017e5760035490825f61095f84610a78565b808352602094600190866001821691825f146109ec575050600114610991575b50506103e392916103d4910385610ae0565b9085925060035f527fc2575a0e9e593c00f959f8c92f12db2869c3395a3b0502d05e2516446f71f85b915f925b8284106109d457505050820101816103d461097f565b8054848a0186015288955087949093019281016109be565b60ff19168682015292151560051b850190920192508391506103d4905061097f565b91908251928382525f5b848110610a38575050825f602080949584010152601f8019910116010190565b602081830181015184830182015201610a18565b600435906001600160a01b038216820361017e57565b602435906001600160a01b038216820361017e57565b90600182811c92168015610aa6575b6020831014610a9257565b634e487b7160e01b5f52602260045260245ffd5b91607f1691610a87565b6040810190811067ffffffffffffffff821117610acc57604052565b634e487b7160e01b5f52604160045260245ffd5b90601f8019910116810190811067ffffffffffffffff821117610acc57604052565b919060018060a01b0380931692835f526001602052604093845f2091831691825f52602052845f2054925f198403610b3d575b505050505050565b848410610b9f57508015610b88578115610b71575f526001602052835f20905f5260205203905f20555f8080808080610b35565b8451634a1406b160e11b81525f6004820152602490fd5b845163e602df0560e01b81525f6004820152602490fd5b8551637dc7a0d960e11b81526001600160a01b039190911660048201526024810184905260448101859052606490fd5b916001600160a01b03808416928315610c915716928315610c7957825f525f60205260405f205490828210610c475750817fddf252ad1be2c89b69c2b068fc378daa952ba7f163c4a11628f55a4df523b3ef92602092855f525f84520360405f2055845f5260405f20818154019055604051908152a3565b60405163391434e360e21b81526001600160a01b03919091166004820152602481019190915260448101829052606490fd5b60405163ec442f0560e01b81525f6004820152602490fd5b604051634b637e8f60e11b81525f6004820152602490fd5b307f00000000000000000000000000000000000000000000000000000000000000006001600160a01b03161480610dab575b15610d04577f000000000000000000000000000000000000000000000000000000000000000090565b60405160208101907f8b73c3c69bb8fe3d512ecc4cf759cc79239f7b179b0ffacaa9a75d522b39400f82527f000000000000000000000000000000000000000000000000000000000000000060408201527f000000000000000000000000000000000000000000000000000000000000000060608201524660808201523060a082015260a0815260c0810181811067ffffffffffffffff821117610acc5760405251902090565b507f00000000000000000000000000000000000000000000000000000000000000004614610cdb565b6008546001600160a01b03163303610de857565b60405163118cdaa760e01b8152336004820152602490fd5b91906001600160a01b038316908115610c9157815f525f60205260405f205493818510610e6d57506020817fddf252ad1be2c89b69c2b068fc378daa952ba7f163c4a11628f55a4df523b3ef925f95968587528684520360408620558060025403600255604051908152a3565b60405163391434e360e21b81526001600160a01b03919091166004820152602481018590526044810191909152606490fd5b6001600160a01b03908116918215610f145716918215610efc5760207f8c5be1e5ebec7d5bd14f71427d1e84f3dd0314c0f7b2291e5b200ac8c7c3b92591835f526001825260405f20855f5282528060405f2055604051908152a3565b604051634a1406b160e11b81525f6004820152602490fd5b60405163e602df0560e01b81525f6004820152602490fd5b60ff8114610f6a5760ff811690601f8211610f585760405191610f4e83610ab0565b8252602082015290565b604051632cd44ac360e21b8152600490fd5b50604051600554815f610f7c83610a78565b808352926020906001908181169081156110095750600114610faa575b5050610fa792500382610ae0565b90565b91509260055f527f036b6384b5eca791c62761152d0c79bb0604c104a5fb6f4eb0703f3154bb3db0935f925b828410610ff15750610fa79450505081016020015f80610f99565b85548785018301529485019486945092810192610fd6565b91505060209250610fa794915060ff191682840152151560051b8201015f80610f99565b60ff811461104f5760ff811690601f8211610f585760405191610f4e83610ab0565b50604051600654815f61106183610a78565b80835292602090600190818116908115611009575060011461108b575050610fa792500382610ae0565b91509260065f527ff652222313e28459528d920b65115c16c04f3efc82aaedc97be59f3f377c0d3f935f925b8284106110d25750610fa79450505081016020015f80610f99565b855487850183015294850194869450928101926110b7565b91907f7fffffffffffffffffffffffffffffff5d576e7357a4501ddfe92f46681b20a0841161116c579160209360809260ff5f9560405194855216868401526040830152606082015282805260015afa15611161575f516001600160a01b0381161561115757905f905f90565b505f906001905f90565b6040513d5f823e3d90fd5b5050505f9160039190565b60048110156111e65780611189575050565b600181036111a35760405163f645eedf60e01b8152600490fd5b600281036111c45760405163fce698f760e01b815260048101839052602490fd5b6003146111ce5750565b602490604051906335e2f38360e21b82526004820152fd5b634e487b7160e01b5f52602160045260245ffdfea26469706673582212201f7ff50eb325d63504ec4e6919539982f1ee1f4396b15d6b22e5d6f762ad4bb664736f6c63430008180033","linkReferences":{}},"methodIdentifiers":{"DOMAIN_SEPARATOR()":"3644e515","acceptOwnership()":"79ba5097","allowance(address,address)":"dd62ed3e","approve(address,uint256)":"095ea7b3","balanceOf(address)":"70a08231","burn(uint256)":"42966c68","burnFrom(address,uint256)":"79cc6790","cap()":"355274ea","decimals()":"313ce567","eip712Domain()":"84b0196e","mint(address,uint256)":"40c10f19","name()":"06fdde03","nonces(address)":"7ecebe00","owner()":"8da5cb5b","pendingOwner()":"e30c3978","permit(address,address,uint256,uint256,uint8,bytes32,bytes32)":"d505accf","renounceOwnership()":"715018a6","symbol()":"95d89b41","totalSupply()":"18160ddd","transfer(address,uint256)":"a9059cbb","transferFrom(address,address,uint256)":"23b872dd","transferOwnership(address)":"f2fde38b"},"id":45}